{
  "contractName": "Loan",
  "abi": [
    {
      "inputs": [
        {
          "internalType": "contract LoanManager",
          "name": "_parentContract",
          "type": "address"
        },
        {
          "internalType": "uint256",
          "name": "_requestedAmount",
          "type": "uint256"
        },
        {
          "internalType": "uint256",
          "name": "_requestedLoanTenureMonth",
          "type": "uint256"
        },
        {
          "internalType": "uint256",
          "name": "_id",
          "type": "uint256"
        }
      ],
      "stateMutability": "nonpayable",
      "type": "constructor"
    },
    {
      "stateMutability": "nonpayable",
      "type": "fallback"
    },
    {
      "inputs": [],
      "name": "approvedAmount",
      "outputs": [
        {
          "internalType": "uint256",
          "name": "",
          "type": "uint256"
        }
      ],
      "stateMutability": "view",
      "type": "function"
    },
    {
      "inputs": [],
      "name": "approvedLoanTenureMonth",
      "outputs": [
        {
          "internalType": "uint256",
          "name": "",
          "type": "uint256"
        }
      ],
      "stateMutability": "view",
      "type": "function"
    },
    {
      "inputs": [],
      "name": "id",
      "outputs": [
        {
          "internalType": "uint256",
          "name": "",
          "type": "uint256"
        }
      ],
      "stateMutability": "view",
      "type": "function"
    },
    {
      "inputs": [],
      "name": "requestedAmount",
      "outputs": [
        {
          "internalType": "uint256",
          "name": "",
          "type": "uint256"
        }
      ],
      "stateMutability": "view",
      "type": "function"
    },
    {
      "inputs": [],
      "name": "requestedLoanTenureMonth",
      "outputs": [
        {
          "internalType": "uint256",
          "name": "",
          "type": "uint256"
        }
      ],
      "stateMutability": "view",
      "type": "function"
    },
    {
      "stateMutability": "payable",
      "type": "receive"
    },
    {
      "inputs": [
        {
          "internalType": "uint256",
          "name": "_approvedAmount",
          "type": "uint256"
        },
        {
          "internalType": "uint256",
          "name": "_approvedLoanTenureMonth",
          "type": "uint256"
        }
      ],
      "name": "approvedLoan",
      "outputs": [],
      "stateMutability": "nonpayable",
      "type": "function"
    }
  ],
  "bytecode": "0x608060405234801561001057600080fd5b5060405161053d38038061053d8339818101604052608081101561003357600080fd5b810190808051906020019092919080519060200190929190805190602001909291908051906020019092919050505082600081905550816002819055508060048190555083600560006101000a81548173ffffffffffffffffffffffffffffffffffffffff021916908373ffffffffffffffffffffffffffffffffffffffff16021790555050505050610472806100cb6000396000f3fe6080604052600436106100595760003560e01c8063108513ed1461006f5780631afc656e1461009a57806378860268146100c5578063af640d0f146100f0578063cde2ec281461011b578063d3519ba41461014657610060565b3661006057005b34801561006c57600080fd5b50005b34801561007b57600080fd5b5061008461018b565b6040518082815260200191505060405180910390f35b3480156100a657600080fd5b506100af610191565b6040518082815260200191505060405180910390f35b3480156100d157600080fd5b506100da610197565b6040518082815260200191505060405180910390f35b3480156100fc57600080fd5b5061010561019d565b6040518082815260200191505060405180910390f35b34801561012757600080fd5b506101306101a3565b6040518082815260200191505060405180910390f35b34801561015257600080fd5b506101896004803603604081101561016957600080fd5b8101908080359060200190929190803590602001909291905050506101a9565b005b60025481565b60035481565b60005481565b60045481565b60015481565b6000821180156101b95750600081115b61020e576040517f08c379a000000000000000000000000000000000000000000000000000000000815260040180806020018281038252602f81526020018061040e602f913960400191505060405180910390fd5b81600181905550806003819055506000600560009054906101000a900473ffffffffffffffffffffffffffffffffffffffff1673ffffffffffffffffffffffffffffffffffffffff16600454604051602401808281526020019150506040516020818303038152906040527fe0cdaab0000000000000000000000000000000000000000000000000000000007bffffffffffffffffffffffffffffffffffffffffffffffffffffffff19166020820180517bffffffffffffffffffffffffffffffffffffffffffffffffffffffff83818316178352505050506040518082805190602001908083835b6020831061031a57805182526020820191506020810190506020830392506102f7565b6001836020036101000a0380198251168184511680821785525050505050509050019150506000604051808303816000865af19150503d806000811461037c576040519150601f19603f3d011682016040523d82523d6000602084013e610381565b606091505b50509050806103db576040517f08c379a000000000000000000000000000000000000000000000000000000000815260040180806020018281038252602d8152602001806103e1602d913960400191505060405180910390fd5b50505056fe436f6e7472616374204c6f616e204d616e616765722072656a656374656420746f20757064617465206c6f616e417070726f76656420616d6f756e7420616e64206c6f616e2074656e757265206d6f6e7468206e6f742076616c6964a2646970667358221220017b4626b6c6729179b4b02453ce9d012db00801eac4ac306507f36757e8ab5f64736f6c634300060c0033",
  "immutableReferences": {},
  "source": "pragma solidity ^0.6.0;\n\nimport \"./LoanManager.sol\";\n\ncontract Loan {\n    uint public requestedAmount;\n    uint public approvedAmount;\n    uint public requestedLoanTenureMonth;\n    uint public approvedLoanTenureMonth;\n    uint public id;\n\n    LoanManager parentContract;\n\n    constructor(LoanManager _parentContract, uint _requestedAmount, uint _requestedLoanTenureMonth, uint _id) public {\n        requestedAmount = _requestedAmount;\n        requestedLoanTenureMonth = _requestedLoanTenureMonth;\n        id = _id;\n        parentContract = _parentContract;\n    }\n\n    receive() external payable {\n        \n    }\n\n    fallback () external {\n\n    }\n\n    function approvedLoan(uint _approvedAmount, uint _approvedLoanTenureMonth) public {\n        require(_approvedAmount > 0 && _approvedLoanTenureMonth > 0, \"Approved amount and loan tenure month not valid\");\n        approvedAmount = _approvedAmount;\n        approvedLoanTenureMonth = _approvedLoanTenureMonth;\n        (bool success, ) = address(parentContract).call(abi.encodeWithSignature(\"triggerApproveLoan(uint256)\", id));\n        require(success, \"Contract Loan Manager rejected to update loan\");\n    }\n\n}\n",
  "sourcePath": "/Users/taihtm/Documents/blockchain/mvp-seedfinance/contracts/Loan.sol",
  "compiler": {
    "name": "solc",
    "version": "0.6.12+commit.27d51765.Emscripten.clang"
  },
  "schemaVersion": "3.4.4",
  "updatedAt": "2022-01-04T14:31:31.207Z",
  "devdoc": {
    "kind": "dev",
    "methods": {},
    "version": 1
  },
  "userdoc": {
    "kind": "user",
    "methods": {},
    "version": 1
  }
}