{
  "contractName": "LoanManager",
  "abi": [
    {
      "anonymous": false,
      "inputs": [
        {
          "indexed": false,
          "internalType": "uint256",
          "name": "_index",
          "type": "uint256"
        },
        {
          "indexed": false,
          "internalType": "uint256",
          "name": "_status",
          "type": "uint256"
        },
        {
          "indexed": false,
          "internalType": "address",
          "name": "_address",
          "type": "address"
        }
      ],
      "name": "LoanEvent",
      "type": "event"
    },
    {
      "inputs": [],
      "name": "_owner",
      "outputs": [
        {
          "internalType": "address",
          "name": "",
          "type": "address"
        }
      ],
      "stateMutability": "view",
      "type": "function",
      "constant": true
    },
    {
      "inputs": [],
      "name": "isOwner",
      "outputs": [
        {
          "internalType": "bool",
          "name": "",
          "type": "bool"
        }
      ],
      "stateMutability": "view",
      "type": "function",
      "constant": true
    },
    {
      "inputs": [
        {
          "internalType": "uint256",
          "name": "",
          "type": "uint256"
        }
      ],
      "name": "loans",
      "outputs": [
        {
          "internalType": "contract Loan",
          "name": "_loan",
          "type": "address"
        },
        {
          "internalType": "enum LoanManager.LoanStatus",
          "name": "_status",
          "type": "uint8"
        }
      ],
      "stateMutability": "view",
      "type": "function",
      "constant": true
    },
    {
      "inputs": [
        {
          "internalType": "uint256",
          "name": "_id",
          "type": "uint256"
        },
        {
          "internalType": "uint256",
          "name": "_requestedAmount",
          "type": "uint256"
        },
        {
          "internalType": "uint256",
          "name": "_requestedLoanTenureMonth",
          "type": "uint256"
        }
      ],
      "name": "createLoan",
      "outputs": [],
      "stateMutability": "nonpayable",
      "type": "function"
    },
    {
      "inputs": [
        {
          "internalType": "uint256",
          "name": "_id",
          "type": "uint256"
        }
      ],
      "name": "triggerApproveLoan",
      "outputs": [],
      "stateMutability": "nonpayable",
      "type": "function"
    }
  ],
  "bytecode": "0x608060405234801561001057600080fd5b50336000806101000a81548173ffffffffffffffffffffffffffffffffffffffff021916908373ffffffffffffffffffffffffffffffffffffffff160217905550610da0806100606000396000f3fe608060405234801561001057600080fd5b50600436106100575760003560e01c80638f32d59b1461005c578063904b513b1461007c578063b2bdfa7b146100be578063e0cdaab0146100f2578063e1ec3c6814610120575b600080fd5b61006461018a565b60405180821515815260200191505060405180910390f35b6100bc6004803603606081101561009257600080fd5b810190808035906020019092919080359060200190929190803590602001909291905050506101e1565b005b6100c661051c565b604051808273ffffffffffffffffffffffffffffffffffffffff16815260200191505060405180910390f35b61011e6004803603602081101561010857600080fd5b8101908080359060200190929190505050610540565b005b61014c6004803603602081101561013657600080fd5b8101908080359060200190929190505050610774565b604051808373ffffffffffffffffffffffffffffffffffffffff16815260200182600181111561017857fe5b81526020019250505060405180910390f35b60008060009054906101000a900473ffffffffffffffffffffffffffffffffffffffff1673ffffffffffffffffffffffffffffffffffffffff163373ffffffffffffffffffffffffffffffffffffffff1614905090565b6101e961018a565b61025b576040517f08c379a00000000000000000000000000000000000000000000000000000000081526004018080602001828103825260208152602001807f4f776e61626c653a2063616c6c6572206973206e6f7420746865206f776e657281525060200191505060405180910390fd5b600073ffffffffffffffffffffffffffffffffffffffff166001600085815260200190815260200160002060000160009054906101000a900473ffffffffffffffffffffffffffffffffffffffff1673ffffffffffffffffffffffffffffffffffffffff1614610333576040517f08c379a000000000000000000000000000000000000000000000000000000000815260040180806020018281038252600e8152602001807f4475706c6963617465206c6f616e00000000000000000000000000000000000081525060200191505060405180910390fd5b6000821180156103435750600081115b610398576040517f08c379a0000000000000000000000000000000000000000000000000000000008152600401808060200182810382526030815260200180610d106030913960400191505060405180910390fd5b6000308383866040516103aa906107c5565b808573ffffffffffffffffffffffffffffffffffffffff168152602001848152602001838152602001828152602001945050505050604051809103906000f0801580156103fb573d6000803e3d6000fd5b509050806001600086815260200190815260200160002060000160006101000a81548173ffffffffffffffffffffffffffffffffffffffff021916908373ffffffffffffffffffffffffffffffffffffffff16021790555060006001600086815260200190815260200160002060000160146101000a81548160ff0219169083600181111561048657fe5b02179055507fbaf51a31a0a9f931037a70425c547a7e7608e9b63233cef13203ca4cb3ba357a846001600087815260200190815260200160002060000160149054906101000a900460ff1660018111156104dc57fe5b83604051808481526020018381526020018273ffffffffffffffffffffffffffffffffffffffff168152602001935050505060405180910390a150505050565b60008054906101000a900473ffffffffffffffffffffffffffffffffffffffff1681565b60006001600083815260200190815260200160002060000160009054906101000a900473ffffffffffffffffffffffffffffffffffffffff1690503373ffffffffffffffffffffffffffffffffffffffff168173ffffffffffffffffffffffffffffffffffffffff16146105ff576040517f08c379a000000000000000000000000000000000000000000000000000000000815260040180806020018281038252602b815260200180610d40602b913960400191505060405180910390fd5b6000600181111561060c57fe5b6001600084815260200190815260200160002060000160149054906101000a900460ff16600181111561063b57fe5b146106ae576040517f08c379a00000000000000000000000000000000000000000000000000000000081526004018080602001828103825260178152602001807f4c6f616e2068617665206265656e20617070726f76656400000000000000000081525060200191505060405180910390fd5b600180600084815260200190815260200160002060000160146101000a81548160ff021916908360018111156106e057fe5b02179055507fbaf51a31a0a9f931037a70425c547a7e7608e9b63233cef13203ca4cb3ba357a826001600085815260200190815260200160002060000160149054906101000a900460ff16600181111561073657fe5b83604051808481526020018381526020018273ffffffffffffffffffffffffffffffffffffffff168152602001935050505060405180910390a15050565b60016020528060005260406000206000915090508060000160009054906101000a900473ffffffffffffffffffffffffffffffffffffffff16908060000160149054906101000a900460ff16905082565b61053d806107d38339019056fe608060405234801561001057600080fd5b5060405161053d38038061053d8339818101604052608081101561003357600080fd5b810190808051906020019092919080519060200190929190805190602001909291908051906020019092919050505082600081905550816002819055508060048190555083600560006101000a81548173ffffffffffffffffffffffffffffffffffffffff021916908373ffffffffffffffffffffffffffffffffffffffff16021790555050505050610472806100cb6000396000f3fe6080604052600436106100595760003560e01c8063108513ed1461006f5780631afc656e1461009a57806378860268146100c5578063af640d0f146100f0578063cde2ec281461011b578063d3519ba41461014657610060565b3661006057005b34801561006c57600080fd5b50005b34801561007b57600080fd5b5061008461018b565b6040518082815260200191505060405180910390f35b3480156100a657600080fd5b506100af610191565b6040518082815260200191505060405180910390f35b3480156100d157600080fd5b506100da610197565b6040518082815260200191505060405180910390f35b3480156100fc57600080fd5b5061010561019d565b6040518082815260200191505060405180910390f35b34801561012757600080fd5b506101306101a3565b6040518082815260200191505060405180910390f35b34801561015257600080fd5b506101896004803603604081101561016957600080fd5b8101908080359060200190929190803590602001909291905050506101a9565b005b60025481565b60035481565b60005481565b60045481565b60015481565b6000821180156101b95750600081115b61020e576040517f08c379a000000000000000000000000000000000000000000000000000000000815260040180806020018281038252602f81526020018061040e602f913960400191505060405180910390fd5b81600181905550806003819055506000600560009054906101000a900473ffffffffffffffffffffffffffffffffffffffff1673ffffffffffffffffffffffffffffffffffffffff16600454604051602401808281526020019150506040516020818303038152906040527fe0cdaab0000000000000000000000000000000000000000000000000000000007bffffffffffffffffffffffffffffffffffffffffffffffffffffffff19166020820180517bffffffffffffffffffffffffffffffffffffffffffffffffffffffff83818316178352505050506040518082805190602001908083835b6020831061031a57805182526020820191506020810190506020830392506102f7565b6001836020036101000a0380198251168184511680821785525050505050509050019150506000604051808303816000865af19150503d806000811461037c576040519150601f19603f3d011682016040523d82523d6000602084013e610381565b606091505b50509050806103db576040517f08c379a000000000000000000000000000000000000000000000000000000000815260040180806020018281038252602d8152602001806103e1602d913960400191505060405180910390fd5b50505056fe436f6e7472616374204c6f616e204d616e616765722072656a656374656420746f20757064617465206c6f616e417070726f76656420616d6f756e7420616e64206c6f616e2074656e757265206d6f6e7468206e6f742076616c6964a2646970667358221220017b4626b6c6729179b4b02453ce9d012db00801eac4ac306507f36757e8ab5f64736f6c634300060c003352657175657374656420616d6f756e7420616e64206c6f616e2074656e757265206d6f6e7468206e6f742076616c69644f6e6c79206c6f616e732061726520616c6c6f77656420746f20757064617465207468656d73656c766573a264697066735822122067ad572e64ce9f314da6e956c01f7b0b895684fb6e90987094b4a4879868c0f464736f6c634300060c0033",
  "immutableReferences": {},
  "source": "pragma solidity ^0.6.0;\n\nimport \"./Loan.sol\";\nimport \"./Ownable.sol\";\n\ncontract LoanManager is Ownable {\n\n    enum LoanStatus {Created, Approved}\n\n    event LoanEvent(uint _index, uint _status, address _address);\n\n    struct S_Loan {\n        Loan _loan;\n        LoanStatus _status;\n    }\n    mapping(uint => S_Loan) public loans;\n\n    function createLoan(uint _id, uint _requestedAmount, uint _requestedLoanTenureMonth) public onlyOwner {\n        require(address(loans[_id]._loan) == address(0), \"Duplicate loan\");\n        require(_requestedAmount > 0 && _requestedLoanTenureMonth > 0, \"Requested amount and loan tenure month not valid\");\n        Loan loan = new Loan(this, _requestedAmount, _requestedLoanTenureMonth, _id);\n        loans[_id]._loan = loan;\n        loans[_id]._status = LoanStatus.Created;\n\n        emit LoanEvent(_id, uint(loans[_id]._status), address(loan));\n\n    }\n\n    function triggerApproveLoan(uint _id) public {\n\n        Loan loan = loans[_id]._loan;\n\n        require(address(loan) == msg.sender, \"Only loans are allowed to update themselves\");\n        require(loans[_id]._status == LoanStatus.Created, \"Loan have been approved\");\n\n        loans[_id]._status = LoanStatus.Approved;\n\n        emit LoanEvent(_id, uint(loans[_id]._status), address(loan));\n    }\n\n}\n",
  "sourcePath": "/Users/taihtm/Documents/blockchain/mvp-seedfinance/contracts/LoanManager.sol",
  "compiler": {
    "name": "solc",
    "version": "0.6.12+commit.27d51765.Emscripten.clang"
  },
  "schemaVersion": "3.4.4",
  "updatedAt": "2022-01-04T14:31:36.112Z",
  "networkType": "ethereum",
  "devdoc": {
    "kind": "dev",
    "methods": {
      "isOwner()": {
        "details": "Returns true if the caller is the current owner."
      }
    },
    "version": 1
  },
  "userdoc": {
    "kind": "user",
    "methods": {},
    "version": 1
  }
}